{
  "_format": "hh-sol-artifact-1",
  "contractName": "GrantDAO",
  "sourceName": "contracts/GrantDAO.sol",
  "abi": [
    {
      "anonymous": false,
      "inputs": [
        {
          "indexed": true,
          "internalType": "uint256",
          "name": "proposalIndex",
          "type": "uint256"
        },
        {
          "indexed": true,
          "internalType": "uint256",
          "name": "proposalId",
          "type": "uint256"
        },
        {
          "indexed": false,
          "internalType": "bool",
          "name": "didPass",
          "type": "bool"
        }
      ],
      "name": "ProcessProposal",
      "type": "event"
    },
    {
      "anonymous": false,
      "inputs": [
        {
          "indexed": true,
          "internalType": "address",
          "name": "delegateKey",
          "type": "address"
        },
        {
          "indexed": true,
          "internalType": "address",
          "name": "memberAddress",
          "type": "address"
        },
        {
          "indexed": false,
          "internalType": "uint256",
          "name": "proposalId",
          "type": "uint256"
        },
        {
          "indexed": false,
          "internalType": "uint256",
          "name": "proposalIndex",
          "type": "uint256"
        },
        {
          "indexed": false,
          "internalType": "uint256",
          "name": "startingPeriod",
          "type": "uint256"
        }
      ],
      "name": "SponsorProposal",
      "type": "event"
    },
    {
      "anonymous": false,
      "inputs": [
        {
          "indexed": true,
          "internalType": "address",
          "name": "applicant",
          "type": "address"
        },
        {
          "indexed": false,
          "internalType": "uint256",
          "name": "sharesRequested",
          "type": "uint256"
        },
        {
          "indexed": false,
          "internalType": "uint256",
          "name": "lootRequested",
          "type": "uint256"
        },
        {
          "indexed": false,
          "internalType": "uint256",
          "name": "tributeOffered",
          "type": "uint256"
        },
        {
          "indexed": false,
          "internalType": "address",
          "name": "tributeToken",
          "type": "address"
        },
        {
          "indexed": false,
          "internalType": "uint256",
          "name": "paymentRequested",
          "type": "uint256"
        },
        {
          "indexed": false,
          "internalType": "address",
          "name": "paymentToken",
          "type": "address"
        },
        {
          "indexed": false,
          "internalType": "string",
          "name": "details",
          "type": "string"
        },
        {
          "indexed": false,
          "internalType": "bool",
          "name": "flags",
          "type": "bool"
        },
        {
          "indexed": false,
          "internalType": "uint256",
          "name": "proposalId",
          "type": "uint256"
        },
        {
          "indexed": true,
          "internalType": "address",
          "name": "delegateKey",
          "type": "address"
        },
        {
          "indexed": true,
          "internalType": "address",
          "name": "memberAddress",
          "type": "address"
        }
      ],
      "name": "SubmitProposal",
      "type": "event"
    },
    {
      "anonymous": false,
      "inputs": [
        {
          "indexed": false,
          "internalType": "uint256",
          "name": "proposalId",
          "type": "uint256"
        },
        {
          "indexed": true,
          "internalType": "uint256",
          "name": "proposalIndex",
          "type": "uint256"
        },
        {
          "indexed": true,
          "internalType": "address",
          "name": "delegateKey",
          "type": "address"
        },
        {
          "indexed": true,
          "internalType": "address",
          "name": "memberAddress",
          "type": "address"
        },
        {
          "indexed": false,
          "internalType": "uint8",
          "name": "uintVote",
          "type": "uint8"
        }
      ],
      "name": "SubmitVote",
      "type": "event"
    },
    {
      "inputs": [
        {
          "internalType": "uint256",
          "name": "",
          "type": "uint256"
        }
      ],
      "name": "isSponsored",
      "outputs": [
        {
          "internalType": "bool",
          "name": "",
          "type": "bool"
        }
      ],
      "stateMutability": "view",
      "type": "function"
    },
    {
      "inputs": [
        {
          "internalType": "uint256",
          "name": "proposalId",
          "type": "uint256"
        }
      ],
      "name": "processProposal",
      "outputs": [],
      "stateMutability": "nonpayable",
      "type": "function"
    },
    {
      "inputs": [],
      "name": "proposalCount",
      "outputs": [
        {
          "internalType": "uint256",
          "name": "",
          "type": "uint256"
        }
      ],
      "stateMutability": "view",
      "type": "function"
    },
    {
      "inputs": [
        {
          "internalType": "uint256",
          "name": "",
          "type": "uint256"
        }
      ],
      "name": "proposals",
      "outputs": [
        {
          "internalType": "string",
          "name": "proposer",
          "type": "string"
        },
        {
          "internalType": "uint256",
          "name": "paymentRequested",
          "type": "uint256"
        },
        {
          "internalType": "uint256",
          "name": "yesVotes",
          "type": "uint256"
        },
        {
          "internalType": "uint256",
          "name": "noVotes",
          "type": "uint256"
        },
        {
          "internalType": "string",
          "name": "details",
          "type": "string"
        }
      ],
      "stateMutability": "view",
      "type": "function"
    },
    {
      "inputs": [
        {
          "internalType": "uint256",
          "name": "proposalId",
          "type": "uint256"
        }
      ],
      "name": "sponsorProposal",
      "outputs": [],
      "stateMutability": "nonpayable",
      "type": "function"
    },
    {
      "inputs": [
        {
          "internalType": "string",
          "name": "_proposer",
          "type": "string"
        },
        {
          "internalType": "uint256",
          "name": "_paymentRequested",
          "type": "uint256"
        },
        {
          "internalType": "string",
          "name": "_details",
          "type": "string"
        }
      ],
      "name": "submitProposal",
      "outputs": [],
      "stateMutability": "nonpayable",
      "type": "function"
    },
    {
      "inputs": [
        {
          "internalType": "uint256",
          "name": "proposalId",
          "type": "uint256"
        },
        {
          "internalType": "uint8",
          "name": "uintVote",
          "type": "uint8"
        }
      ],
      "name": "submitVote",
      "outputs": [],
      "stateMutability": "nonpayable",
      "type": "function"
    }
  ],
  "bytecode": "0x6080604052606460025534801561001557600080fd5b506111d8806100256000396000f3fe608060405234801561001057600080fd5b506004361061007d5760003560e01c80639746d9401161005b5780639746d9401461010257806399653fbe1461011e578063da35c6641461013a578063e63bc62d146101585761007d565b8063013cf08b1461008257806335e1f968146100b65780633aa5289e146100d2575b600080fd5b61009c60048036038101906100979190610ae7565b610174565b6040516100ad959493929190610d15565b60405180910390f35b6100d060048036038101906100cb9190610a68565b6102ba565b005b6100ec60048036038101906100e79190610ae7565b610437565b6040516100f99190610c66565b60405180910390f35b61011c60048036038101906101179190610ae7565b610457565b005b61013860048036038101906101339190610b10565b6104f0565b005b6101426108b8565b60405161014f9190610dd6565b60405180910390f35b610172600480360381019061016d9190610ae7565b6108be565b005b600060205280600052604060002060009150905080600001805461019790610ff8565b80601f01602080910402602001604051908101604052809291908181526020018280546101c390610ff8565b80156102105780601f106101e557610100808354040283529160200191610210565b820191906000526020600020905b8154815290600101906020018083116101f357829003601f168201915b50505050509080600101549080600201549080600301549080600401805461023790610ff8565b80601f016020809104026020016040519081016040528092919081815260200182805461026390610ff8565b80156102b05780601f10610285576101008083540402835291602001916102b0565b820191906000526020600020905b81548152906001019060200180831161029357829003601f168201915b5050505050905085565b60006040518060a0016040528085815260200184815260200160008152602001600081526020018381525090508060008060025481526020019081526020016000206000820151816000019080519060200190610318929190610933565b506020820151816001015560408201518160020155606082015181600301556080820151816004019080519060200190610353929190610933565b509050503373ffffffffffffffffffffffffffffffffffffffff163373ffffffffffffffffffffffffffffffffffffffff163373ffffffffffffffffffffffffffffffffffffffff167fc161377f71d2a5c0572d5c020820b3ce05570bb15c51f8cb607083d0b4b997f8600080678ac7230489e8000073e91d153e0b41518a2ce8dd3d7944fa863463a97d8a73e91d153e0b41518a2ce8dd3d7944fa863463a97d8b600160025460405161040f99989796959493929190610c81565b60405180910390a460016002600082825461042a9190610ec3565b9250508190555050505050565b60016020528060005260406000206000915054906101000a900460ff1681565b600180600083815260200190815260200160002060006101000a81548160ff0219169083151502179055503373ffffffffffffffffffffffffffffffffffffffff163373ffffffffffffffffffffffffffffffffffffffff167f2a383a979381335e3eb401ac01dd8083e024ff0256bf5338456ffc0063390bbd83601460c86040516104e593929190610df1565b60405180910390a350565b6001600083815260200190815260200160002060009054906101000a900460ff16610550576040517f08c379a000000000000000000000000000000000000000000000000000000000815260040161054790610d76565b60405180910390fd5b6000806000848152602001908152602001600020905060038260ff16106105ac576040517f08c379a00000000000000000000000000000000000000000000000000000000081526004016105a390610d96565b60405180910390fd5b60008260ff1660028111156105ea577f4e487b7100000000000000000000000000000000000000000000000000000000600052602160045260246000fd5b905060016002811115610626577f4e487b7100000000000000000000000000000000000000000000000000000000600052602160045260246000fd5b81600281111561065f577f4e487b7100000000000000000000000000000000000000000000000000000000600052602160045260246000fd5b14806106da575060028081111561069f577f4e487b7100000000000000000000000000000000000000000000000000000000600052602160045260246000fd5b8160028111156106d8577f4e487b7100000000000000000000000000000000000000000000000000000000600052602160045260246000fd5b145b610719576040517f08c379a000000000000000000000000000000000000000000000000000000000815260040161071090610db6565b60405180910390fd5b60016002811115610753577f4e487b7100000000000000000000000000000000000000000000000000000000600052602160045260246000fd5b81600281111561078c577f4e487b7100000000000000000000000000000000000000000000000000000000600052602160045260246000fd5b14156107b35760018260020160008282546107a79190610ec3565b92505081905550610849565b6002808111156107ec577f4e487b7100000000000000000000000000000000000000000000000000000000600052602160045260246000fd5b816002811115610825577f4e487b7100000000000000000000000000000000000000000000000000000000600052602160045260246000fd5b14156108485760018260030160008282546108409190610ec3565b925050819055505b5b3373ffffffffffffffffffffffffffffffffffffffff163373ffffffffffffffffffffffffffffffffffffffff16600c7f804f03797630bf8b8a46b9371608abbf7d78a20df720e477bab641957ca68a2087876040516108aa929190610e28565b60405180910390a450505050565b60025481565b60006108c982610909565b90508160147f86f74240ecee9e4230d26ff92e17fee978460d9c0f78f5c88b2864c9e7a49427836040516108fd9190610c66565b60405180910390a35050565b60008060008084815260200190815260200160002090508060030154816002015411915050919050565b82805461093f90610ff8565b90600052602060002090601f01602090048101928261096157600085556109a8565b82601f1061097a57805160ff19168380011785556109a8565b828001600101855582156109a8579182015b828111156109a757825182559160200191906001019061098c565b5b5090506109b591906109b9565b5090565b5b808211156109d25760008160009055506001016109ba565b5090565b60006109e96109e484610e76565b610e51565b905082815260208101848484011115610a0157600080fd5b610a0c848285610fb6565b509392505050565b600082601f830112610a2557600080fd5b8135610a358482602086016109d6565b91505092915050565b600081359050610a4d81611174565b92915050565b600081359050610a628161118b565b92915050565b600080600060608486031215610a7d57600080fd5b600084013567ffffffffffffffff811115610a9757600080fd5b610aa386828701610a14565b9350506020610ab486828701610a3e565b925050604084013567ffffffffffffffff811115610ad157600080fd5b610add86828701610a14565b9150509250925092565b600060208284031215610af957600080fd5b6000610b0784828501610a3e565b91505092915050565b60008060408385031215610b2357600080fd5b6000610b3185828601610a3e565b9250506020610b4285828601610a53565b9150509250929050565b610b5581610f19565b82525050565b610b6481610f2b565b82525050565b610b7381610f6e565b82525050565b610b8281610f80565b82525050565b610b9181610f92565b82525050565b610ba081610fa4565b82525050565b6000610bb182610ea7565b610bbb8185610eb2565b9350610bcb818560208601610fc5565b610bd4816110e8565b840191505092915050565b6000610bec601983610eb2565b9150610bf7826110f9565b602082019050919050565b6000610c0f601383610eb2565b9150610c1a82611122565b602082019050919050565b6000610c32601d83610eb2565b9150610c3d8261114b565b602082019050919050565b610c5181610f57565b82525050565b610c6081610f61565b82525050565b6000602082019050610c7b6000830184610b5b565b92915050565b600061012082019050610c97600083018c610b6a565b610ca4602083018b610b6a565b610cb1604083018a610b79565b610cbe6060830189610b4c565b610ccb6080830188610c48565b610cd860a0830187610b4c565b81810360c0830152610cea8186610ba6565b9050610cf960e0830185610b5b565b610d07610100830184610c48565b9a9950505050505050505050565b600060a0820190508181036000830152610d2f8188610ba6565b9050610d3e6020830187610c48565b610d4b6040830186610c48565b610d586060830185610c48565b8181036080830152610d6a8184610ba6565b90509695505050505050565b60006020820190508181036000830152610d8f81610bdf565b9050919050565b60006020820190508181036000830152610daf81610c02565b9050919050565b60006020820190508181036000830152610dcf81610c25565b9050919050565b6000602082019050610deb6000830184610c48565b92915050565b6000606082019050610e066000830186610c48565b610e136020830185610b97565b610e206040830184610b88565b949350505050565b6000604082019050610e3d6000830185610c48565b610e4a6020830184610c57565b9392505050565b6000610e5b610e6c565b9050610e67828261102a565b919050565b6000604051905090565b600067ffffffffffffffff821115610e9157610e906110b9565b5b610e9a826110e8565b9050602081019050919050565b600081519050919050565b600082825260208201905092915050565b6000610ece82610f57565b9150610ed983610f57565b9250827fffffffffffffffffffffffffffffffffffffffffffffffffffffffffffffffff03821115610f0e57610f0d61105b565b5b828201905092915050565b6000610f2482610f37565b9050919050565b60008115159050919050565b600073ffffffffffffffffffffffffffffffffffffffff82169050919050565b6000819050919050565b600060ff82169050919050565b6000610f7982610f57565b9050919050565b6000610f8b82610f57565b9050919050565b6000610f9d82610f57565b9050919050565b6000610faf82610f57565b9050919050565b82818337600083830152505050565b60005b83811015610fe3578082015181840152602081019050610fc8565b83811115610ff2576000848401525b50505050565b6000600282049050600182168061101057607f821691505b602082108114156110245761102361108a565b5b50919050565b611033826110e8565b810181811067ffffffffffffffff82111715611052576110516110b9565b5b80604052505050565b7f4e487b7100000000000000000000000000000000000000000000000000000000600052601160045260246000fd5b7f4e487b7100000000000000000000000000000000000000000000000000000000600052602260045260246000fd5b7f4e487b7100000000000000000000000000000000000000000000000000000000600052604160045260246000fd5b6000601f19601f8301169050919050565b7f50726f706f73616c206e6565647320612073706f6e736f722100000000000000600082015250565b7f6d757374206265206c657373207468616e203300000000000000000000000000600082015250565b7f766f7465206d7573742062652065697468657220596573206f72204e6f000000600082015250565b61117d81610f57565b811461118857600080fd5b50565b61119481610f61565b811461119f57600080fd5b5056fea2646970667358221220a189dbb7b9fa9d368d517b536214cfd63eadc607e49f099b00745c996582c51564736f6c63430008040033",
  "linkReferences": {},
  "deployedLinkReferences": {}
}